:1008F300758920758DF4758BF4758780D28E759804
:0609030050D2ACD2AF227D
:050915001208F380FE52
:03002300020800D0
:10080000C0E0C0F0C083C082C0D075D000C000C0BE
:1008100001C002C003C004C005C006C00785990A14
:10082000C298850A993099FDC299E50A6444707BA3
:10083000F508F5091208CDC2B5C2A07F137E0012DB
:1008400008D50509E50970020508C3941EE508648A
:1008500080948040DF750800750900D2B5D2A07F72
:10086000027E001208D5C2B5C2A07F127E00120817
:10087000D50509E50970020508C394C8E508648038
:10088000948040D77508007509001208CDC2B5C222
:10089000A07F137E001208D50509E509700205083E
:0B08A000C3941EE5086480948040DFD4
:1008AB00E50AB44C02B2B6D007D006D005D004D0BE
:1008BB0003D002D001D000D0D0D082D083D0F0D0E2
:0208CB00E03219
:0808CD00D2B5D2A07F017E002C
:1008D500D3EF9400EE940040147D6E7C00ED1D7006
:0D08E500011CED4C70F7EF1F70E61E80E364
:0108F20022E3
:03000000020909E9
:0C090900787FE4F6D8FD75810A0209151C
:00000001FF
